{
  "_format": "hh-sol-artifact-1",
  "contractName": "Jug",
  "sourceName": "src/jug.sol",
  "abi": [
    {
      "inputs": [
        {
          "internalType": "address",
          "name": "vat_",
          "type": "address"
        }
      ],
      "stateMutability": "nonpayable",
      "type": "constructor"
    },
    {
      "inputs": [],
      "name": "base",
      "outputs": [
        {
          "internalType": "uint256",
          "name": "",
          "type": "uint256"
        }
      ],
      "stateMutability": "view",
      "type": "function"
    },
    {
      "inputs": [
        {
          "internalType": "address",
          "name": "usr",
          "type": "address"
        }
      ],
      "name": "deny",
      "outputs": [],
      "stateMutability": "nonpayable",
      "type": "function"
    },
    {
      "inputs": [
        {
          "internalType": "bytes32",
          "name": "ilk",
          "type": "bytes32"
        }
      ],
      "name": "drip",
      "outputs": [
        {
          "internalType": "uint256",
          "name": "rate",
          "type": "uint256"
        }
      ],
      "stateMutability": "nonpayable",
      "type": "function"
    },
    {
      "inputs": [
        {
          "internalType": "bytes32",
          "name": "ilk",
          "type": "bytes32"
        },
        {
          "internalType": "bytes32",
          "name": "what",
          "type": "bytes32"
        },
        {
          "internalType": "uint256",
          "name": "data",
          "type": "uint256"
        }
      ],
      "name": "file",
      "outputs": [],
      "stateMutability": "nonpayable",
      "type": "function"
    },
    {
      "inputs": [
        {
          "internalType": "bytes32",
          "name": "what",
          "type": "bytes32"
        },
        {
          "internalType": "uint256",
          "name": "data",
          "type": "uint256"
        }
      ],
      "name": "file",
      "outputs": [],
      "stateMutability": "nonpayable",
      "type": "function"
    },
    {
      "inputs": [
        {
          "internalType": "bytes32",
          "name": "what",
          "type": "bytes32"
        },
        {
          "internalType": "address",
          "name": "data",
          "type": "address"
        }
      ],
      "name": "file",
      "outputs": [],
      "stateMutability": "nonpayable",
      "type": "function"
    },
    {
      "inputs": [
        {
          "internalType": "bytes32",
          "name": "",
          "type": "bytes32"
        }
      ],
      "name": "ilks",
      "outputs": [
        {
          "internalType": "uint256",
          "name": "duty",
          "type": "uint256"
        },
        {
          "internalType": "uint256",
          "name": "rho",
          "type": "uint256"
        }
      ],
      "stateMutability": "view",
      "type": "function"
    },
    {
      "inputs": [
        {
          "internalType": "bytes32",
          "name": "ilk",
          "type": "bytes32"
        }
      ],
      "name": "init",
      "outputs": [],
      "stateMutability": "nonpayable",
      "type": "function"
    },
    {
      "inputs": [
        {
          "internalType": "address",
          "name": "usr",
          "type": "address"
        }
      ],
      "name": "rely",
      "outputs": [],
      "stateMutability": "nonpayable",
      "type": "function"
    },
    {
      "inputs": [],
      "name": "vat",
      "outputs": [
        {
          "internalType": "contract VatLike",
          "name": "",
          "type": "address"
        }
      ],
      "stateMutability": "view",
      "type": "function"
    },
    {
      "inputs": [],
      "name": "vow",
      "outputs": [
        {
          "internalType": "address",
          "name": "",
          "type": "address"
        }
      ],
      "stateMutability": "view",
      "type": "function"
    },
    {
      "inputs": [
        {
          "internalType": "address",
          "name": "",
          "type": "address"
        }
      ],
      "name": "wards",
      "outputs": [
        {
          "internalType": "uint256",
          "name": "",
          "type": "uint256"
        }
      ],
      "stateMutability": "view",
      "type": "function"
    }
  ],
  "bytecode": "0x608060405234801561001057600080fd5b506040516111753803806111758339818101604052602081101561003357600080fd5b810190808051906020019092919050505060016000803373ffffffffffffffffffffffffffffffffffffffff1673ffffffffffffffffffffffffffffffffffffffff1681526020019081526020016000208190555080600260006101000a81548173ffffffffffffffffffffffffffffffffffffffff021916908373ffffffffffffffffffffffffffffffffffffffff1602179055505061109c806100d96000396000f3fe608060405234801561001057600080fd5b50600436106100b45760003560e01c8063626cb3c511610071578063626cb3c5146101f557806365fae35e146102295780639c52a7f11461026d578063bf353dbb146102b1578063d4e8be8314610309578063d9638d3614610357576100b4565b80631a0b287e146100b957806329ae8114146100fb57806336569e77146101335780633b6631951461016757806344e2a5a8146101955780635001f3b5146101d7575b600080fd5b6100f9600480360360608110156100cf57600080fd5b810190808035906020019092919080359060200190929190803590602001909291905050506103a0565b005b6101316004803603604081101561011157600080fd5b81019080803590602001909291908035906020019092919050505061059a565b005b61013b6106f4565b604051808273ffffffffffffffffffffffffffffffffffffffff16815260200191505060405180910390f35b6101936004803603602081101561017d57600080fd5b810190808035906020019092919050505061071a565b005b6101c1600480360360208110156101ab57600080fd5b8101908080359060200190929190505050610881565b6040518082815260200191505060405180910390f35b6101df610b27565b6040518082815260200191505060405180910390f35b6101fd610b2d565b604051808273ffffffffffffffffffffffffffffffffffffffff16815260200191505060405180910390f35b61026b6004803603602081101561023f57600080fd5b81019080803573ffffffffffffffffffffffffffffffffffffffff169060200190929190505050610b53565b005b6102af6004803603602081101561028357600080fd5b81019080803573ffffffffffffffffffffffffffffffffffffffff169060200190929190505050610c4e565b005b6102f3600480360360208110156102c757600080fd5b81019080803573ffffffffffffffffffffffffffffffffffffffff169060200190929190505050610d49565b6040518082815260200191505060405180910390f35b6103556004803603604081101561031f57600080fd5b8101908080359060200190929190803573ffffffffffffffffffffffffffffffffffffffff169060200190929190505050610d61565b005b6103836004803603602081101561036d57600080fd5b8101908080359060200190929190505050610ef5565b604051808381526020018281526020019250505060405180910390f35b60016000803373ffffffffffffffffffffffffffffffffffffffff1673ffffffffffffffffffffffffffffffffffffffff1681526020019081526020016000205414610454576040517f08c379a00000000000000000000000000000000000000000000000000000000081526004018080602001828103825260128152602001807f4a75672f6e6f742d617574686f72697a6564000000000000000000000000000081525060200191505060405180910390fd5b600160008481526020019081526020016000206001015442146104df576040517f08c379a00000000000000000000000000000000000000000000000000000000081526004018080602001828103825260138152602001807f4a75672f72686f2d6e6f742d757064617465640000000000000000000000000081525060200191505060405180910390fd5b7f647574790000000000000000000000000000000000000000000000000000000082141561052757806001600085815260200190815260200160002060000181905550610595565b6040517f08c379a000000000000000000000000000000000000000000000000000000000815260040180806020018281038252601b8152602001807f4a75672f66696c652d756e7265636f676e697a65642d706172616d000000000081525060200191505060405180910390fd5b505050565b60016000803373ffffffffffffffffffffffffffffffffffffffff1673ffffffffffffffffffffffffffffffffffffffff168152602001908152602001600020541461064e576040517f08c379a00000000000000000000000000000000000000000000000000000000081526004018080602001828103825260128152602001807f4a75672f6e6f742d617574686f72697a6564000000000000000000000000000081525060200191505060405180910390fd5b7f626173650000000000000000000000000000000000000000000000000000000082141561068257806004819055506106f0565b6040517f08c379a000000000000000000000000000000000000000000000000000000000815260040180806020018281038252601b8152602001807f4a75672f66696c652d756e7265636f676e697a65642d706172616d000000000081525060200191505060405180910390fd5b5050565b600260009054906101000a900473ffffffffffffffffffffffffffffffffffffffff1681565b60016000803373ffffffffffffffffffffffffffffffffffffffff1673ffffffffffffffffffffffffffffffffffffffff16815260200190815260200160002054146107ce576040517f08c379a00000000000000000000000000000000000000000000000000000000081526004018080602001828103825260128152602001807f4a75672f6e6f742d617574686f72697a6564000000000000000000000000000081525060200191505060405180910390fd5b6000600160008381526020019081526020016000209050600081600001541461085f576040517f08c379a00000000000000000000000000000000000000000000000000000000081526004018080602001828103825260148152602001807f4a75672f696c6b2d616c72656164792d696e697400000000000000000000000081525060200191505060405180910390fd5b6b033b2e3c9fd0803ce800000081600001819055504281600101819055505050565b6000600160008381526020019081526020016000206001015442101561090f576040517f08c379a000000000000000000000000000000000000000000000000000000000815260040180806020018281038252600f8152602001807f4a75672f696e76616c69642d6e6f77000000000000000000000000000000000081525060200191505060405180910390fd5b6000600260009054906101000a900473ffffffffffffffffffffffffffffffffffffffff1673ffffffffffffffffffffffffffffffffffffffff1663d9638d36846040518263ffffffff1660e01b8152600401808281526020019150506040805180830381600087803b15801561098557600080fd5b505af1158015610999573d6000803e3d6000fd5b505050506040513d60408110156109af57600080fd5b810190808051906020019092919080519060200190929190505050915050610a26610a206109f56004546001600088815260200190815260200160002060000154610f19565b600160008781526020019081526020016000206001015442036b033b2e3c9fd0803ce8000000610f33565b82610ff9565b9150600260009054906101000a900473ffffffffffffffffffffffffffffffffffffffff1673ffffffffffffffffffffffffffffffffffffffff1663b65337df84600360009054906101000a900473ffffffffffffffffffffffffffffffffffffffff16610a94868661103e565b6040518463ffffffff1660e01b8152600401808481526020018373ffffffffffffffffffffffffffffffffffffffff1681526020018281526020019350505050600060405180830381600087803b158015610aee57600080fd5b505af1158015610b02573d6000803e3d6000fd5b5050505042600160008581526020019081526020016000206001018190555050919050565b60045481565b600360009054906101000a900473ffffffffffffffffffffffffffffffffffffffff1681565b60016000803373ffffffffffffffffffffffffffffffffffffffff1673ffffffffffffffffffffffffffffffffffffffff1681526020019081526020016000205414610c07576040517f08c379a00000000000000000000000000000000000000000000000000000000081526004018080602001828103825260128152602001807f4a75672f6e6f742d617574686f72697a6564000000000000000000000000000081525060200191505060405180910390fd5b60016000808373ffffffffffffffffffffffffffffffffffffffff1673ffffffffffffffffffffffffffffffffffffffff1681526020019081526020016000208190555050565b60016000803373ffffffffffffffffffffffffffffffffffffffff1673ffffffffffffffffffffffffffffffffffffffff1681526020019081526020016000205414610d02576040517f08c379a00000000000000000000000000000000000000000000000000000000081526004018080602001828103825260128152602001807f4a75672f6e6f742d617574686f72697a6564000000000000000000000000000081525060200191505060405180910390fd5b60008060008373ffffffffffffffffffffffffffffffffffffffff1673ffffffffffffffffffffffffffffffffffffffff1681526020019081526020016000208190555050565b60006020528060005260406000206000915090505481565b60016000803373ffffffffffffffffffffffffffffffffffffffff1673ffffffffffffffffffffffffffffffffffffffff1681526020019081526020016000205414610e15576040517f08c379a00000000000000000000000000000000000000000000000000000000081526004018080602001828103825260128152602001807f4a75672f6e6f742d617574686f72697a6564000000000000000000000000000081525060200191505060405180910390fd5b7f766f770000000000000000000000000000000000000000000000000000000000821415610e835780600360006101000a81548173ffffffffffffffffffffffffffffffffffffffff021916908373ffffffffffffffffffffffffffffffffffffffff160217905550610ef1565b6040517f08c379a000000000000000000000000000000000000000000000000000000000815260040180806020018281038252601b8152602001807f4a75672f66696c652d756e7265636f676e697a65642d706172616d000000000081525060200191505060405180910390fd5b5050565b60016020528060005260406000206000915090508060000154908060010154905082565b6000818301905082811015610f2d57600080fd5b92915050565b60008360008114610fd9576002840660008114610f5257859250610f56565b8392505b50600283046002850494505b8415610fd3578586028687820414610f7957600080fd5b81810181811015610f8957600080fd5b85810497506002870615610fc6578785028589820414158915151615610fae57600080fd5b83810181811015610fbe57600080fd5b878104965050505b5050600285049450610f62565b50610ff1565b8360008114610feb5760009250610fef565b8392505b505b509392505050565b60008183029050600082148061101757508282828161101457fe5b04145b61102057600080fd5b6b033b2e3c9fd0803ce8000000818161103557fe5b04905092915050565b6000818303905060008312158015611057575060008212155b61106057600080fd5b9291505056fea26469706673582212209c611f75fa167949342519f06ec53a0b899313c74be869018c8efd3246bb0d7364736f6c634300060c0033",
  "linkReferences": {},
  "deployedLinkReferences": {}
}