{
  "_format": "hh-sol-artifact-1",
  "contractName": "LinearDecrease",
  "sourceName": "src/abaci.sol",
  "abi": [
    {
      "inputs": [],
      "stateMutability": "nonpayable",
      "type": "constructor"
    },
    {
      "anonymous": false,
      "inputs": [
        {
          "indexed": true,
          "internalType": "address",
          "name": "usr",
          "type": "address"
        }
      ],
      "name": "Deny",
      "type": "event"
    },
    {
      "anonymous": false,
      "inputs": [
        {
          "indexed": true,
          "internalType": "bytes32",
          "name": "what",
          "type": "bytes32"
        },
        {
          "indexed": false,
          "internalType": "uint256",
          "name": "data",
          "type": "uint256"
        }
      ],
      "name": "File",
      "type": "event"
    },
    {
      "anonymous": false,
      "inputs": [
        {
          "indexed": true,
          "internalType": "address",
          "name": "usr",
          "type": "address"
        }
      ],
      "name": "Rely",
      "type": "event"
    },
    {
      "inputs": [
        {
          "internalType": "address",
          "name": "usr",
          "type": "address"
        }
      ],
      "name": "deny",
      "outputs": [],
      "stateMutability": "nonpayable",
      "type": "function"
    },
    {
      "inputs": [
        {
          "internalType": "bytes32",
          "name": "what",
          "type": "bytes32"
        },
        {
          "internalType": "uint256",
          "name": "data",
          "type": "uint256"
        }
      ],
      "name": "file",
      "outputs": [],
      "stateMutability": "nonpayable",
      "type": "function"
    },
    {
      "inputs": [
        {
          "internalType": "uint256",
          "name": "top",
          "type": "uint256"
        },
        {
          "internalType": "uint256",
          "name": "dur",
          "type": "uint256"
        }
      ],
      "name": "price",
      "outputs": [
        {
          "internalType": "uint256",
          "name": "",
          "type": "uint256"
        }
      ],
      "stateMutability": "view",
      "type": "function"
    },
    {
      "inputs": [
        {
          "internalType": "address",
          "name": "usr",
          "type": "address"
        }
      ],
      "name": "rely",
      "outputs": [],
      "stateMutability": "nonpayable",
      "type": "function"
    },
    {
      "inputs": [],
      "name": "tau",
      "outputs": [
        {
          "internalType": "uint256",
          "name": "",
          "type": "uint256"
        }
      ],
      "stateMutability": "view",
      "type": "function"
    },
    {
      "inputs": [
        {
          "internalType": "address",
          "name": "",
          "type": "address"
        }
      ],
      "name": "wards",
      "outputs": [
        {
          "internalType": "uint256",
          "name": "",
          "type": "uint256"
        }
      ],
      "stateMutability": "view",
      "type": "function"
    }
  ],
  "bytecode": "0x608060405234801561001057600080fd5b5060016000803373ffffffffffffffffffffffffffffffffffffffff1673ffffffffffffffffffffffffffffffffffffffff168152602001908152602001600020819055503373ffffffffffffffffffffffffffffffffffffffff167fdd0e34038ac38b2a1ce960229778ac48a8719bc900b6c4f8d0475c6e8b385a6060405160405180910390a2610710806100a76000396000f3fe608060405234801561001057600080fd5b50600436106100625760003560e01c806329ae811414610067578063487a23951461009f57806365fae35e146100eb5780639c52a7f11461012f578063bf353dbb14610173578063cfc4af55146101cb575b600080fd5b61009d6004803603604081101561007d57600080fd5b8101908080359060200190929190803590602001909291905050506101e9565b005b6100d5600480360360408110156100b557600080fd5b81019080803590602001909291908035906020019092919050505061035e565b6040518082815260200191505060405180910390f35b61012d6004803603602081101561010157600080fd5b81019080803573ffffffffffffffffffffffffffffffffffffffff1690602001909291905050506103a9565b005b6101716004803603602081101561014557600080fd5b81019080803573ffffffffffffffffffffffffffffffffffffffff1690602001909291905050506104e7565b005b6101b56004803603602081101561018957600080fd5b81019080803573ffffffffffffffffffffffffffffffffffffffff169060200190929190505050610625565b6040518082815260200191505060405180910390f35b6101d361063d565b6040518082815260200191505060405180910390f35b60016000803373ffffffffffffffffffffffffffffffffffffffff1673ffffffffffffffffffffffffffffffffffffffff168152602001908152602001600020541461029d576040517f08c379a000000000000000000000000000000000000000000000000000000000815260040180806020018281038252601d8152602001807f4c696e65617244656372656173652f6e6f742d617574686f72697a656400000081525060200191505060405180910390fd5b7f74617500000000000000000000000000000000000000000000000000000000008214156102d15780600181905550610322565b6040517f08c379a00000000000000000000000000000000000000000000000000000000081526004018080602001828103825260268152602001806106b56026913960400191505060405180910390fd5b817fe986e40cc8c151830d4f61050f4fb2e4add8567caad2d5f5496f9158e91fe4c7826040518082815260200191505060405180910390a25050565b6000600154821061037257600090506103a3565b6103a08360015461039385600154036b033b2e3c9fd0803ce8000000610643565b8161039a57fe5b0461066f565b90505b92915050565b60016000803373ffffffffffffffffffffffffffffffffffffffff1673ffffffffffffffffffffffffffffffffffffffff168152602001908152602001600020541461045d576040517f08c379a000000000000000000000000000000000000000000000000000000000815260040180806020018281038252601d8152602001807f4c696e65617244656372656173652f6e6f742d617574686f72697a656400000081525060200191505060405180910390fd5b60016000808373ffffffffffffffffffffffffffffffffffffffff1673ffffffffffffffffffffffffffffffffffffffff168152602001908152602001600020819055508073ffffffffffffffffffffffffffffffffffffffff167fdd0e34038ac38b2a1ce960229778ac48a8719bc900b6c4f8d0475c6e8b385a6060405160405180910390a250565b60016000803373ffffffffffffffffffffffffffffffffffffffff1673ffffffffffffffffffffffffffffffffffffffff168152602001908152602001600020541461059b576040517f08c379a000000000000000000000000000000000000000000000000000000000815260040180806020018281038252601d8152602001807f4c696e65617244656372656173652f6e6f742d617574686f72697a656400000081525060200191505060405180910390fd5b60008060008373ffffffffffffffffffffffffffffffffffffffff1673ffffffffffffffffffffffffffffffffffffffff168152602001908152602001600020819055508073ffffffffffffffffffffffffffffffffffffffff167f184450df2e323acec0ed3b5c7531b81f9b4cdef7914dfd4c0a4317416bb5251b60405160405180910390a250565b60006020528060005260406000206000915090505481565b60015481565b600080821480610660575082828385029250828161065d57fe5b04145b61066957600080fd5b92915050565b60008183029050600082148061068d57508282828161068a57fe5b04145b61069657600080fd5b6b033b2e3c9fd0803ce800000081816106ab57fe5b0490509291505056fe4c696e65617244656372656173652f66696c652d756e7265636f676e697a65642d706172616da26469706673582212206e7066c77e2580dcd7c9aab4caf8548d977a89e23c2d901d5395ae111b50279164736f6c634300060c0033",
  "linkReferences": {},
  "deployedLinkReferences": {}
}